:020000040000FA
:0400000031EF3FF0AD
:107DDE0000FE11111111FE0009EC3FF01AEC3FF0FC
:107DEE00F5EF3EF000EF00F0026EC95002C0C9FF81
:107DFE009EA604EF3FF006EF3FF0FFEF3EF09E969B
:107E0E00C95012000F0EC16E93809392949E929A57
:107E1E00898A400EC76E200EC66E9E96AFEC3FF05E
:107E2E004AEC3FF012000C0E036E000E046E000EB4
:107E3E00066E080E056E010E73EC3FF0030E0B6E10
:107E4E008A0E0A6E560EE82EFED70A2EFCD70B2E81
:107E5E00FAD71200DE0EF66E7D0EF76E000EF86E7D
:107E6E0000EE0CF010EE08F00900F5CFEEFFE55035
:107E7E00E150FAE100EE14F0070EEE6AE806FDE1BD
:107E8E000001F3EF3EF0000E1A6E010E196E1ABECF
:107E9E005AEF3FF01A5009E1090E195CD8A05AEFBB
:107EAE003FF05CEF3FF05EEF3FF072EF3FF0899AEC
:107EBE001950FBEC3EF0000EFBEC3EF0898A210ED1
:107ECE00036E760EE82EFED7032EFCD700D0194A8D
:107EDE001A2A4EEF3FF01200096E000E1A6E000EB7
:107EEE00196E93EF3FF0899A09501924FBEC3EF07E
:107EFE0003C0D9FF04C0DAFFDF50FBEC3EF0898AE5
:107F0E00210E076E760EE82EFED7072EFCD700D078
:107F1E00034A042A194A1A2A0550195C1A50800A73
:107F2E00076E0650800A0758D8A0A0EF3FF0A2EFC8
:107F3E003FF07AEF3FF01A0E086E5E0E076E6E0E71
:107F4E00E82EFED7072EFCD7082EFAD700D0120047
:107F5E00899A090EFBEC3EF0000EFBEC3EF0898A8E
:107F6E00210E036E760EE82EFED7032EFCD700D020
:107F7E00899A0A0EFBEC3EF00F0EFBEC3EF0898A5E
:107F8E00210E036E760EE82EFED7032EFCD700D000
:107F9E00899A0B0EFBEC3EF0070EFBEC3EF0898A45
:107FAE00210E036E760EE82EFED7032EFCD700D0E0
:107FBE00899A0C0EFBEC3EF0010EFBEC3EF0898A2A
:107FCE00210E036E760EE82EFED7032EFCD700D0C0
:107FDE00899A0F0EFBEC3EF0000EFBEC3EF0898A08
:107FEE00210E036E760EE82EFED7032EFCD700D0A0
:027FFE0012006F
:020000040020DA
:08000000FFFFFFFFFFFFFFFF00
:020000040030CA
:0E000000000C1F1EFF8381FF0FC00FE00F409A
:00000001FF
